:100000000C942A000C9447000C9447000C94470071
:100010000C9447000C9447000C94A0050C944700E6
:100020000C9447000C9447000C9447000C94470034
:100030000C9447000C9447000C9447000C94470024
:100040000C9447000C9447000C9447000C94470014
:100050000C94470011241FBECFE5D8E0DEBFCDBF12
:1000600010E0A0E6B0E0EEE9FEE002C005900D92DF
:10007000A03EB107D9F720E0A0EEB0E001C01D928C
:10008000A83EB207E1F70E94B6000C944D070C940D
:1000900000000F931F93CF93DF9300D000D01F92E7
:1000A000CDB7DEB7AC018B01892BB1F580E3DB0165
:1000B0008C9311961C9250C09A01ADECBCEC0E943E
:1000C00037079695879596958795969587959C0180
:1000D000220F331F880F991F880F991F880F991FB0
:1000E000820F931F9A01281B390BC901A1E0B0E0D0
:1000F000AC0FBD1FAE0FB11D805D8C939A01ADECAE
:10010000BCEC0E943707AC0156954795569547952C
:1001100056954795EF5F01C0E0E04115510561F646
:1001200080E014C0282F30E0A801420F531FAE2FEB
:10013000B0E01197A21BB30B21E030E02C0F3D1F64
:10014000A20FB31F9C91DA019C938F5F8E1750F31F
:10015000F801E80FF11D10820F900F900F900F9093
:100160000F90DF91CF911F910F910895CF93DF935F
:1001700000D000D01F92CDB7DEB70E9412050E94BA
:10018000DE020E94C9050E9410030E9402020E9422
:100190004A030E9410050E94D40288E790E00E9462
:1001A000FD0268EE73E080E090E00E9422050E946C
:1001B000D40287E890E00E94FD0268EE73E080E0E0
:1001C00090E00E9422050E94D40280E00E94130366
:1001D00068E873E180E090E00E9422050E946003DD
:1001E0008C010E94D40287E990E00E94FD028DE913
:1001F00090E00E94FD02BE016F5F7F4FC8010E9428
:100200004900CE0101960E94FD028FE990E00E9414
:10021000FD0268EE73E080E090E00E9422050B3062
:10022000110518F00E947901D9CF0E94E9010E94BE
:10023000D40282EA90E00E94FD0286EA0E94130343
:1002400068E873E180E090E00E9422050E9460036C
:100250008C018AE50E94130368E873E180E090E076
:100260000E9422050E9460037C0180E00E9413032B
:1002700068E873E180E090E00E9422050115110515
:10028000A1F00E151F0588F00E94D40281EB90E0CA
:100290000E94FD020E94CD0160E273E080E090E0E8
:1002A0000E9422050E94E90199CFEF2889F00E945F
:1002B000D4028EEB90E00E94FD020E94B10160E248
:1002C00073E080E090E00E9422050E94E90186CF61
:1002D0000E94D4028CEC90E00E94FD020E949501E5
:1002E00060E273E080E090E00E9422050E94E90154
:1002F00075CFCF93C1E0C0936F008CE690E00E9471
:10030000650410926B0088E690E00E9465041092EC
:10031000670084E690E00E946504C093630080E675
:1003200090E00E946504CF910895CF9310926F00E2
:100330008CE690E00E946504C1E0C0936B0088E603
:1003400090E00E946504C093670084E690E00E94FC
:1003500065041092630080E690E00E946504CF91EE
:100360000895CF93C1E0C0936F008CE690E00E94A7
:10037000650410926B0088E690E00E946504C093CB
:10038000670084E690E00E9465041092630080E6B6
:1003900090E00E946504CF910895CF9310926F0072
:1003A0008CE690E00E946504C1E0C0936B0088E693
:1003B00090E00E9465041092670084E690E00E943D
:1003C0006504C093630080E690E00E946504CF91CD
:1003D000089510926F008CE690E00E9465041092E0
:1003E0006B0088E690E00E9465041092670084E646
:1003F00090E00E9465041092630080E690E00E9405
:10040000650408958CE690E00E94CA0388E690E0B7
:100410000E94CA0384E690E00E94CA0380E690E04E
:100420000E94CA030E94E90108950F931F93CF937E
:10043000DF9300D000D0CDB7DEB7082F19821A8223
:100440001B821C8281E08B8310E015C0E12FF0E05D
:10045000E452FF4F80818A83802F90E0012E02C0FA
:10046000959587950A94E2F781708C83CE01019669
:100470000E9465041F5F143048F30F900F900F9097
:100480000F90DF91CF911F910F910895CF93DF933C
:1004900000D000D0CDB7DEB719821A821B821C8231
:1004A00081E08A838B838C83CE0101960E94650450
:1004B0006AE070E080E090E00E9422051C82CE019C
:1004C00001960E94650462E070E080E090E00E9486
:1004D00022050F900F900F900F90DF91CF9108950C
:1004E0001F93CF93DF9300D000D0CDB7DEB7182F86
:1004F00019821A8281E08B831C82CE0101960E94B0
:100500006504812F82958F700E9415020E94460219
:1005100065E070E080E090E00E942205812F8F70FE
:100520000E9415020E94460265E070E080E090E0C3
:100530000E9422050F900F900F900F90DF91CF91A6
:100540001F9108951F93CF93DF9300D000D0CDB7B4
:10055000DEB7182F19821A8281E08B838C83CE013B
:1005600001960E946504812F82958F700E9415026A
:100570000E94460265E070E080E090E00E94220563
:10058000812F8F700E9415020E94460265E070E084
:1005900080E090E00E9422050F900F900F900F9046
:1005A000DF91CF911F91089581E00E94700264EF66
:1005B00071E080E090E00E942205089563EF80E002
:1005C0000E94000568E572E080E090E00E9422054C
:1005D00082E00E9415020E94460282E00E941502FB
:1005E0000E94460288E00E9415020E9446028CE0AA
:1005F0000E9470020E94D40208950F931F93CF931C
:100600008C01C0E003C00E94A202CF5FF801EC0F92
:10061000F11D80818111F7CFCF911F910F91089526
:100620000E943C050895A82F880FBB0BA65ABF4F08
:100630002AEF30E00E94460724EB30E040E050E033
:100640000E941507C90186509F4F0E9479050895A1
:100650008091E10081110DC00E9498059093E50002
:100660008093E40080E00E947C0581E08093E100BB
:1006700008958091E100813061F40E949805909383
:10068000E3008093E20082E08093E10081E08093C8
:10069000E000089584E790E00E94CA0384E790E0B8
:1006A0000E94650480E790E00E94CA0388E293E01C
:1006B0000E949B0581E00E947C050E941005089520
:1006C000CF92DF92EF92FF92CF93DF931092E100EF
:1006D0001092E00081E00E947C05C4E7D0E081E058
:1006E0008B83CE010E9465048AE090E00E94DB05C6
:1006F0001B82CE010E946504C12CD12C760109C059
:1007000081E090E00E94DB058FEFC81AD80AE80A62
:10071000F80A8091E000811107C080E3C81685E7E0
:10072000D806E104F10460F38091E000882349F1E8
:100730006091E2007091E3008091E4009091E50007
:10074000681B790BCB01A0E0B0E0BC01CD01660FC6
:10075000771F881F991F660F771F881F991F0E9498
:100760001A0628E23EE74CE05DE30E94800620E0A6
:1007700030E040E05FE30E9480060E94EB05CB0181
:1007800002C080E090E0DF91CF91FF90EF90DF908A
:10079000CF900895FC01892B09F48BC080818130B2
:1007A00041F138F0823009F444C0833009F461C06B
:1007B00082C08281813069F42AB381E090E00180B7
:1007C00002C0880F991F0A94E2F7822B8ABB80E04F
:1007D0000895811172C02AB381E090E0018002C0C7
:1007E000880F991F0A94E2F7809582238ABB80E0E4
:1007F00008958281813069F427B381E090E001801F
:1008000002C0880F991F0A94E2F7822B87BB80E011
:100810000895811154C027B381E090E0018002C0A7
:10082000880F991F0A94E2F78095822387BB80E0A6
:1008300008958281813069F424B381E090E00180E1
:1008400002C0880F991F0A94E2F7822B84BB80E0D4
:100850000895811136C024B381E090E0018002C088
:10086000880F991F0A94E2F78095822384BB80E069
:1008700008958281813069F421B381E090E00180A4
:1008800002C0880F991F0A94E2F7822B81BB80E097
:100890000895811118C021B381E090E0018002C069
:1008A000880F991F0A94E2F78095822381BB80E02C
:1008B000089581E0089581E0089580E0089580E042
:1008C000089580E0089580E00895FC01892B09F4E3
:1008D0008BC08081813041F138F0823009F444C00E
:1008E000833009F461C082C08381813069F42BB305
:1008F00081E090E0018002C0880F991F0A94E2F71E
:10090000822B8BBB80E00895811172C02BB381E0F4
:1009100090E0018002C0880F991F0A94E2F7809549
:1009200082238BBB80E008958381813069F428B3F2
:1009300081E090E0018002C0880F991F0A94E2F7DD
:10094000822B88BB80E00895811154C028B381E0D8
:1009500090E0018002C0880F991F0A94E2F7809509
:10096000822388BB80E008958381813069F425B3B8
:1009700081E090E0018002C0880F991F0A94E2F79D
:10098000822B85BB80E00895811136C025B381E0BC
:1009900090E0018002C0880F991F0A94E2F78095C9
:1009A000822385BB80E008958381813069F422B37E
:1009B00081E090E0018002C0880F991F0A94E2F75D
:1009C000822B82BB80E00895811118C022B381E0A0
:1009D00090E0018002C0880F991F0A94E2F7809589
:1009E000822382BB80E0089581E0089581E008952C
:1009F00080E0089580E0089580E0089580E0089503
:100A0000813041F028F0823039F0833039F0089598
:100A10006ABB089567BB089564BB089561BB0895E0
:100A20007894089583B7886083BF83B78F7B83BF33
:100A30008AEF8CBF83B7887F836083BF88B782606B
:100A400088BF08950F931F938B019C0140E050E0F5
:100A5000BA010AC008B601FEFDCF88B7826088BF20
:100A60004F5F5F4F6F4F7F4F40175107620773070C
:100A700088F31F910F910895CF93DF9300D000D09A
:100A8000CDB7DEB78FB581608FBD8FB582608FBD6A
:100A90008EB588608EBD8EB580618EBD19821A823A
:100AA0001B821C8283E0898384E08A8381E08B83BC
:100AB000CE0101960E94CA038FB58F7B8FBD8FB583
:100AC00080688FBD8FB58F7E8FBD8FB580628FBDE3
:100AD00087E893E19BBD8ABD8EB5887F8EBD8EB5BC
:100AE00083608EBD0F900F900F900F90DF91CF918C
:100AF000089599BD88BD08959EB5987F9EBD9EB509
:100B000093609EBD9EB590689EBD882319F081308C
:100B100029F007C08EB58F7B8EBD03C08EB5806473
:100B20008EBD88B7806288BF89B7806289BF08950B
:100B300086B597B508959093E7008093E6000895F1
:100B40001F920F920FB60F9211242F933F934F9342
:100B50005F936F937F938F939F93AF93BF93EF9325
:100B6000FF93E091E600F091E700309709F00995D6
:100B7000FF91EF91BF91AF919F918F917F916F9175
:100B80005F914F913F912F910F900FBE0F901F904B
:100B9000189585B5886085BD85B58F7B85BD8FE04F
:100BA00083BD85B5887F85BD85B5816085BD88B7E6
:100BB000806888BF0895AC0120E030E008C008B626
:100BC00007FEFDCF98B7906898BF2F5F3F4F24175F
:100BD0003507A8F308950E945F0688F09F5798F0A4
:100BE000B92F9927B751B0F0E1F0660F771F881F32
:100BF000991F1AF0BA95C9F714C0B13091F00E944C
:100C00007906B1E008950C947906672F782F88272C
:100C1000B85F39F0B93FCCF3869577956795B39572
:100C2000D9F73EF490958095709561957F4F8F4FE1
:100C30009F4F0895E89409C097FB3EF490958095E6
:100C4000709561957F4F8F4F9F4F9923A9F0F92F92
:100C500096E9BB279395F695879577956795B79510
:100C6000F111F8CFFAF4BB0F11F460FF1BC06F5FF6
:100C70007F4F8F4F9F4F16C0882311F096E911C008
:100C8000772321F09EE8872F762F05C0662371F029
:100C900096E8862F70E060E02AF09A95660F771F3D
:100CA000881FDAF7880F9695879597F9089557FD6D
:100CB0009058440F551F59F05F3F71F04795880FCA
:100CC00097FB991F61F09F3F79F087950895121661
:100CD00013061406551FF2CF4695F1DF08C016160D
:100CE00017061806991FF1CF8695710561050894BE
:100CF0000895E894BB2766277727CB0197F90895D5
:100D00000E9493060C9404070E94F60638F00E9495
:100D1000FD0620F0952311F00C94ED060C94F306DB
:100D200011240C947A060E94570670F3959FC1F324
:100D3000950F50E0551F629FF001729FBB27F00D89
:100D4000B11D639FAA27F00DB11DAA1F649F6627DE
:100D5000B00DA11D661F829F2227B00DA11D621F2D
:100D6000739FB00DA11D621F839FA00D611D221FE7
:100D7000749F3327A00D611D231F849F600D211DCB
:100D8000822F762F6A2F11249F5750409AF0F1F04E
:100D900088234AF0EE0FFF1FBB1F661F771F881FB7
:100DA00091505040A9F79E3F510580F00C94ED06FC
:100DB0000C947A065F3FE4F3983ED4F386957795DA
:100DC0006795B795F795E7959F5FC1F7FE2B880F5D
:100DD000911D9695879597F9089597F99F6780E8F3
:100DE00070E060E008959FEF80EC089500240A947D
:100DF0001616170618060906089500240A941216F6
:100E00001306140605060895092E0394000C11F428
:100E1000882352F0BB0F40F4BF2B11F460FF04C0D5
:100E20006F5F7F4F8F4F9F4F0895A1E21A2EAA1B2D
:100E3000BB1BFD010DC0AA1FBB1FEE1FFF1FA2178A
:100E4000B307E407F50720F0A21BB30BE40BF50B87
:100E5000661F771F881F991F1A9469F76095709510
:100E6000809590959B01AC01BD01CF010895A29F93
:100E7000B001B39FC001A39F700D811D1124911D6E
:100E8000B29F700D811D1124911D08950E94370796
:0E0E9000B7FF0895821B930B0895F894FFCFCF
:100E9E000103010001020100010101000100010036
:100EAE0003060000030201004175746F6E6F6D6FD3
:100EBE00757320436172004C6574277320537461FF
:100ECE007274205E5F5E00446973743A00200063A2
:100EDE006D004F62737461636C6521205363616EA4
:100EEE00005475726E696E67204C65667400547599
:100EFE00726E696E6720526967687400426C6F6328
:100F0E006B65642D52657665727365000405060780
:00000001FF
